{
  "contractName": "Marketplace",
  "abi": [
    {
      "inputs": [],
      "payable": false,
      "stateMutability": "nonpayable",
      "type": "constructor"
    },
    {
      "constant": true,
      "inputs": [
        {
          "internalType": "uint256",
          "name": "",
          "type": "uint256"
        }
      ],
      "name": "allProducts",
      "outputs": [
        {
          "internalType": "string",
          "name": "productId",
          "type": "string"
        },
        {
          "internalType": "string",
          "name": "productName",
          "type": "string"
        },
        {
          "internalType": "string",
          "name": "Category",
          "type": "string"
        },
        {
          "internalType": "uint256",
          "name": "price",
          "type": "uint256"
        },
        {
          "internalType": "string",
          "name": "description",
          "type": "string"
        },
        {
          "internalType": "address payable",
          "name": "seller",
          "type": "address"
        },
        {
          "internalType": "bool",
          "name": "isActive",
          "type": "bool"
        }
      ],
      "payable": false,
      "stateMutability": "view",
      "type": "function"
    },
    {
      "constant": true,
      "inputs": [],
      "name": "owner",
      "outputs": [
        {
          "internalType": "address payable",
          "name": "",
          "type": "address"
        }
      ],
      "payable": false,
      "stateMutability": "view",
      "type": "function"
    },
    {
      "constant": true,
      "inputs": [
        {
          "internalType": "address",
          "name": "",
          "type": "address"
        }
      ],
      "name": "sellers",
      "outputs": [
        {
          "internalType": "string",
          "name": "name",
          "type": "string"
        },
        {
          "internalType": "address",
          "name": "addr",
          "type": "address"
        },
        {
          "internalType": "uint256",
          "name": "bankGuaraantee",
          "type": "uint256"
        },
        {
          "internalType": "bool",
          "name": "bgPaid",
          "type": "bool"
        }
      ],
      "payable": false,
      "stateMutability": "view",
      "type": "function"
    },
    {
      "constant": false,
      "inputs": [
        {
          "internalType": "string",
          "name": "_productId",
          "type": "string"
        },
        {
          "internalType": "string",
          "name": "_productName",
          "type": "string"
        },
        {
          "internalType": "string",
          "name": "_category",
          "type": "string"
        },
        {
          "internalType": "uint256",
          "name": "_price",
          "type": "uint256"
        },
        {
          "internalType": "string",
          "name": "_description",
          "type": "string"
        }
      ],
      "name": "addProduct",
      "outputs": [],
      "payable": false,
      "stateMutability": "nonpayable",
      "type": "function"
    },
    {
      "constant": false,
      "inputs": [
        {
          "internalType": "string",
          "name": "_productId",
          "type": "string"
        }
      ],
      "name": "buyProduct",
      "outputs": [],
      "payable": true,
      "stateMutability": "payable",
      "type": "function"
    },
    {
      "constant": false,
      "inputs": [
        {
          "internalType": "string",
          "name": "_name",
          "type": "string"
        },
        {
          "internalType": "string",
          "name": "_email",
          "type": "string"
        },
        {
          "internalType": "string",
          "name": "_deliveryAddress",
          "type": "string"
        }
      ],
      "name": "createAccount",
      "outputs": [],
      "payable": false,
      "stateMutability": "nonpayable",
      "type": "function"
    },
    {
      "constant": false,
      "inputs": [
        {
          "internalType": "uint256",
          "name": "_purchaseId",
          "type": "uint256"
        },
        {
          "internalType": "string",
          "name": "_shipmentDetails",
          "type": "string"
        }
      ],
      "name": "updateShipment",
      "outputs": [],
      "payable": false,
      "stateMutability": "nonpayable",
      "type": "function"
    },
    {
      "constant": false,
      "inputs": [
        {
          "internalType": "string",
          "name": "_name",
          "type": "string"
        }
      ],
      "name": "sellerSignUp",
      "outputs": [],
      "payable": true,
      "stateMutability": "payable",
      "type": "function"
    },
    {
      "constant": false,
      "inputs": [
        {
          "internalType": "string",
          "name": "_productId",
          "type": "string"
        },
        {
          "internalType": "uint256",
          "name": "_purchaseId",
          "type": "uint256"
        }
      ],
      "name": "cancelOrder",
      "outputs": [],
      "payable": true,
      "stateMutability": "payable",
      "type": "function"
    },
    {
      "constant": false,
      "inputs": [
        {
          "internalType": "string",
          "name": "_productId",
          "type": "string"
        },
        {
          "internalType": "uint256",
          "name": "_purchaseId",
          "type": "uint256"
        }
      ],
      "name": "refund",
      "outputs": [],
      "payable": true,
      "stateMutability": "payable",
      "type": "function"
    },
    {
      "constant": true,
      "inputs": [],
      "name": "getOrdersPlacedLength",
      "outputs": [
        {
          "internalType": "uint256",
          "name": "",
          "type": "uint256"
        }
      ],
      "payable": false,
      "stateMutability": "view",
      "type": "function"
    },
    {
      "constant": true,
      "inputs": [],
      "name": "getProductsLength",
      "outputs": [
        {
          "internalType": "uint256",
          "name": "",
          "type": "uint256"
        }
      ],
      "payable": false,
      "stateMutability": "view",
      "type": "function"
    },
    {
      "constant": true,
      "inputs": [],
      "name": "getMyOrdersLength",
      "outputs": [
        {
          "internalType": "uint256",
          "name": "",
          "type": "uint256"
        }
      ],
      "payable": false,
      "stateMutability": "view",
      "type": "function"
    },
    {
      "constant": true,
      "inputs": [
        {
          "internalType": "uint256",
          "name": "_index",
          "type": "uint256"
        }
      ],
      "name": "myOrders",
      "outputs": [
        {
          "internalType": "string",
          "name": "",
          "type": "string"
        },
        {
          "internalType": "string",
          "name": "",
          "type": "string"
        },
        {
          "internalType": "uint256",
          "name": "",
          "type": "uint256"
        },
        {
          "internalType": "string",
          "name": "",
          "type": "string"
        }
      ],
      "payable": false,
      "stateMutability": "view",
      "type": "function"
    },
    {
      "constant": true,
      "inputs": [
        {
          "internalType": "uint256",
          "name": "_purchaseId",
          "type": "uint256"
        }
      ],
      "name": "getShipmentProductId",
      "outputs": [
        {
          "internalType": "string",
          "name": "",
          "type": "string"
        }
      ],
      "payable": false,
      "stateMutability": "view",
      "type": "function"
    },
    {
      "constant": true,
      "inputs": [
        {
          "internalType": "uint256",
          "name": "_purchaseId",
          "type": "uint256"
        }
      ],
      "name": "getShipmentStatus",
      "outputs": [
        {
          "internalType": "string",
          "name": "",
          "type": "string"
        }
      ],
      "payable": false,
      "stateMutability": "view",
      "type": "function"
    },
    {
      "constant": true,
      "inputs": [
        {
          "internalType": "uint256",
          "name": "_purchaseId",
          "type": "uint256"
        }
      ],
      "name": "getShipmentOrderedBy",
      "outputs": [
        {
          "internalType": "address",
          "name": "",
          "type": "address"
        }
      ],
      "payable": false,
      "stateMutability": "view",
      "type": "function"
    },
    {
      "constant": true,
      "inputs": [
        {
          "internalType": "uint256",
          "name": "_purchaseId",
          "type": "uint256"
        }
      ],
      "name": "getShipmentAddress",
      "outputs": [
        {
          "internalType": "string",
          "name": "",
          "type": "string"
        }
      ],
      "payable": false,
      "stateMutability": "view",
      "type": "function"
    },
    {
      "constant": true,
      "inputs": [
        {
          "internalType": "uint256",
          "name": "_index",
          "type": "uint256"
        }
      ],
      "name": "getOrdersPlaced",
      "outputs": [
        {
          "internalType": "string",
          "name": "",
          "type": "string"
        },
        {
          "internalType": "uint256",
          "name": "",
          "type": "uint256"
        },
        {
          "internalType": "address",
          "name": "",
          "type": "address"
        },
        {
          "internalType": "string",
          "name": "",
          "type": "string"
        }
      ],
      "payable": false,
      "stateMutability": "view",
      "type": "function"
    }
  ],
  "bytecode": "0x608060405234801561001057600080fd5b50336000806101000a81548173ffffffffffffffffffffffffffffffffffffffff021916908373ffffffffffffffffffffffffffffffffffffffff160217905550614183806100606000396000f3fe6080604052600436106101145760003560e01c80639617e885116100a0578063bc53c0c411610064578063bc53c0c414610be1578063cfaaef5614610dd7578063edd9241614611014578063ee21259d146110d9578063fd6141de1461118d57610114565b80639617e88514610868578063a17fe4b71461092d578063a3061742146109e1578063a47d42be14610b3b578063b7a433a614610b6657610114565b8063631ef073116100e7578063631ef0731461038c5780636d29d972146104405780636d47ab72146106d75780638da5cb5b146107e657806391d7035a1461083d57610114565b80631155dfe5146101195780631e1cdf6c14610144578063364e022f146101ff5780635f22ba3b146102ba575b600080fd5b34801561012557600080fd5b5061012e611320565b6040518082815260200191505060405180910390f35b6101fd6004803603602081101561015a57600080fd5b810190808035906020019064010000000081111561017757600080fd5b82018360208201111561018957600080fd5b803590602001918460018302840111640100000000831117156101ab57600080fd5b91908080601f016020809104026020016040519081016040528093929190818152602001838380828437600081840152601f19601f82011690508083019250505050505050919291929050505061132d565b005b6102b86004803603602081101561021557600080fd5b810190808035906020019064010000000081111561023257600080fd5b82018360208201111561024457600080fd5b8035906020019184600183028401116401000000008311171561026657600080fd5b91908080601f016020809104026020016040519081016040528093929190818152602001838380828437600081840152601f19601f820116905080830192505050505050509192919290505050611580565b005b3480156102c657600080fd5b5061038a600480360360408110156102dd57600080fd5b81019080803590602001909291908035906020019064010000000081111561030457600080fd5b82018360208201111561031657600080fd5b8035906020019184600183028401116401000000008311171561033857600080fd5b91908080601f016020809104026020016040519081016040528093929190818152602001838380828437600081840152601f19601f8201169050808301925050505050505091929192905050506120ca565b005b34801561039857600080fd5b506103c5600480360360208110156103af57600080fd5b81019080803590602001909291905050506121a0565b6040518080602001828103825283818151815260200191508051906020019080838360005b838110156104055780820151818401526020810190506103ea565b50505050905090810190601f1680156104325780820380516001836020036101000a031916815260200191505b509250505060405180910390f35b34801561044c57600080fd5b506106d5600480360360a081101561046357600080fd5b810190808035906020019064010000000081111561048057600080fd5b82018360208201111561049257600080fd5b803590602001918460018302840111640100000000831117156104b457600080fd5b91908080601f016020809104026020016040519081016040528093929190818152602001838380828437600081840152601f19601f8201169050808301925050505050505091929192908035906020019064010000000081111561051757600080fd5b82018360208201111561052957600080fd5b8035906020019184600183028401116401000000008311171561054b57600080fd5b91908080601f016020809104026020016040519081016040528093929190818152602001838380828437600081840152601f19601f820116905080830192505050505050509192919290803590602001906401000000008111156105ae57600080fd5b8201836020820111156105c057600080fd5b803590602001918460018302840111640100000000831117156105e257600080fd5b91908080601f016020809104026020016040519081016040528093929190818152602001838380828437600081840152601f19601f820116905080830192505050505050509192919290803590602001909291908035906020019064010000000081111561064f57600080fd5b82018360208201111561066157600080fd5b8035906020019184600183028401116401000000008311171561068357600080fd5b91908080601f016020809104026020016040519081016040528093929190818152602001838380828437600081840152601f19601f820116905080830192505050505050509192919290505050612295565b005b3480156106e357600080fd5b50610726600480360360208110156106fa57600080fd5b81019080803573ffffffffffffffffffffffffffffffffffffffff16906020019092919050505061288b565b60405180806020018573ffffffffffffffffffffffffffffffffffffffff1673ffffffffffffffffffffffffffffffffffffffff16815260200184815260200183151515158152602001828103825286818151815260200191508051906020019080838360005b838110156107a857808201518184015260208101905061078d565b50505050905090810190601f1680156107d55780820380516001836020036101000a031916815260200191505b509550505050505060405180910390f35b3480156107f257600080fd5b506107fb612980565b604051808273ffffffffffffffffffffffffffffffffffffffff1673ffffffffffffffffffffffffffffffffffffffff16815260200191505060405180910390f35b34801561084957600080fd5b506108526129a5565b6040518082815260200191505060405180910390f35b61092b6004803603604081101561087e57600080fd5b810190808035906020019064010000000081111561089b57600080fd5b8201836020820111156108ad57600080fd5b803590602001918460018302840111640100000000831117156108cf57600080fd5b91908080601f016020809104026020016040519081016040528093929190818152602001838380828437600081840152601f19601f820116905080830192505050505050509192919290803590602001909291905050506129ef565b005b34801561093957600080fd5b506109666004803603602081101561095057600080fd5b8101908080359060200190929190505050612d2e565b6040518080602001828103825283818151815260200191508051906020019080838360005b838110156109a657808201518184015260208101905061098b565b50505050905090810190601f1680156109d35780820380516001836020036101000a031916815260200191505b509250505060405180910390f35b3480156109ed57600080fd5b50610a1a60048036036020811015610a0457600080fd5b8101908080359060200190929190505050612e23565b60405180806020018581526020018473ffffffffffffffffffffffffffffffffffffffff1673ffffffffffffffffffffffffffffffffffffffff16815260200180602001838103835287818151815260200191508051906020019080838360005b83811015610a96578082015181840152602081019050610a7b565b50505050905090810190601f168015610ac35780820380516001836020036101000a031916815260200191505b50838103825284818151815260200191508051906020019080838360005b83811015610afc578082015181840152602081019050610ae1565b50505050905090810190601f168015610b295780820380516001836020036101000a031916815260200191505b50965050505050505060405180910390f35b348015610b4757600080fd5b50610b50613152565b6040518082815260200191505060405180910390f35b348015610b7257600080fd5b50610b9f60048036036020811015610b8957600080fd5b810190808035906020019092919050505061319c565b604051808273ffffffffffffffffffffffffffffffffffffffff1673ffffffffffffffffffffffffffffffffffffffff16815260200191505060405180910390f35b348015610bed57600080fd5b50610dd560048036036060811015610c0457600080fd5b8101908080359060200190640100000000811115610c2157600080fd5b820183602082011115610c3357600080fd5b80359060200191846001830284011164010000000083111715610c5557600080fd5b91908080601f016020809104026020016040519081016040528093929190818152602001838380828437600081840152601f19601f82011690508083019250505050505050919291929080359060200190640100000000811115610cb857600080fd5b820183602082011115610cca57600080fd5b80359060200191846001830284011164010000000083111715610cec57600080fd5b91908080601f016020809104026020016040519081016040528093929190818152602001838380828437600081840152601f19601f82011690508083019250505050505050919291929080359060200190640100000000811115610d4f57600080fd5b820183602082011115610d6157600080fd5b80359060200191846001830284011164010000000083111715610d8357600080fd5b91908080601f016020809104026020016040519081016040528093929190818152602001838380828437600081840152601f19601f820116905080830192505050505050509192919290505050613219565b005b348015610de357600080fd5b50610e1060048036036020811015610dfa57600080fd5b810190808035906020019092919050505061337e565b60405180806020018060200180602001888152602001806020018773ffffffffffffffffffffffffffffffffffffffff1673ffffffffffffffffffffffffffffffffffffffff1681526020018615151515815260200185810385528c818151815260200191508051906020019080838360005b83811015610e9e578082015181840152602081019050610e83565b50505050905090810190601f168015610ecb5780820380516001836020036101000a031916815260200191505b5085810384528b818151815260200191508051906020019080838360005b83811015610f04578082015181840152602081019050610ee9565b50505050905090810190601f168015610f315780820380516001836020036101000a031916815260200191505b5085810383528a818151815260200191508051906020019080838360005b83811015610f6a578082015181840152602081019050610f4f565b50505050905090810190601f168015610f975780820380516001836020036101000a031916815260200191505b50858103825288818151815260200191508051906020019080838360005b83811015610fd0578082015181840152602081019050610fb5565b50505050905090810190601f168015610ffd5780820380516001836020036101000a031916815260200191505b509b50505050505050505050505060405180910390f35b6110d76004803603604081101561102a57600080fd5b810190808035906020019064010000000081111561104757600080fd5b82018360208201111561105957600080fd5b8035906020019184600183028401116401000000008311171561107b57600080fd5b91908080601f016020809104026020016040519081016040528093929190818152602001838380828437600081840152601f19601f8201169050808301925050505050505091929192908035906020019092919050505061365a565b005b3480156110e557600080fd5b50611112600480360360208110156110fc57600080fd5b8101908080359060200190929190505050613906565b6040518080602001828103825283818151815260200191508051906020019080838360005b83811015611152578082015181840152602081019050611137565b50505050905090810190601f16801561117f5780820380516001836020036101000a031916815260200191505b509250505060405180910390f35b34801561119957600080fd5b506111c6600480360360208110156111b057600080fd5b81019080803590602001909291905050506139fb565b60405180806020018060200185815260200180602001848103845288818151815260200191508051906020019080838360005b838110156112145780820151818401526020810190506111f9565b50505050905090810190601f1680156112415780820380516001836020036101000a031916815260200191505b50848103835287818151815260200191508051906020019080838360005b8381101561127a57808201518184015260208101905061125f565b50505050905090810190601f1680156112a75780820380516001836020036101000a031916815260200191505b50848103825285818151815260200191508051906020019080838360005b838110156112e05780820151818401526020810190506112c5565b50505050905090810190601f16801561130d5780820380516001836020036101000a031916815260200191505b5097505050505050505060405180910390f35b6000600380549050905090565b600760003373ffffffffffffffffffffffffffffffffffffffff1673ffffffffffffffffffffffffffffffffffffffff16815260200190815260200160002060030160009054906101000a900460ff161561138757600080fd5b674563918244f40000341461139b57600080fd5b6000809054906101000a900473ffffffffffffffffffffffffffffffffffffffff1673ffffffffffffffffffffffffffffffffffffffff166108fc349081150290604051600060405180830381858888f19350505050158015611402573d6000803e3d6000fd5b5080600760003373ffffffffffffffffffffffffffffffffffffffff1673ffffffffffffffffffffffffffffffffffffffff1681526020019081526020016000206000019080519060200190611459929190613e93565b5033600760003373ffffffffffffffffffffffffffffffffffffffff1673ffffffffffffffffffffffffffffffffffffffff16815260200190815260200160002060010160006101000a81548173ffffffffffffffffffffffffffffffffffffffff021916908373ffffffffffffffffffffffffffffffffffffffff16021790555034600760003373ffffffffffffffffffffffffffffffffffffffff1673ffffffffffffffffffffffffffffffffffffffff168152602001908152602001600020600201819055506001600760003373ffffffffffffffffffffffffffffffffffffffff1673ffffffffffffffffffffffffffffffffffffffff16815260200190815260200160002060030160006101000a81548160ff02191690831515021790555050565b6004816040518082805190602001908083835b602083106115b65780518252602082019150602081019050602083039250611593565b6001836020036101000a03801982511681845116808217855250505050505090500191505090815260200160405180910390206003015434146115f857600080fd5b600660003373ffffffffffffffffffffffffffffffffffffffff1673ffffffffffffffffffffffffffffffffffffffff16815260200190815260200160002060030160009054906101000a900460ff1661165157600080fd5b6004816040518082805190602001908083835b602083106116875780518252602082019150602081019050602083039250611664565b6001836020036101000a038019825116818451168082178552505050505050905001915050908152602001604051809103902060050160009054906101000a900473ffffffffffffffffffffffffffffffffffffffff1673ffffffffffffffffffffffffffffffffffffffff166108fc349081150290604051600060405180830381858888f19350505050158015611723573d6000803e3d6000fd5b506001600081548092919060010191905055600281905550611743613f13565b60405180608001604052808381526020016040518060400160405280601881526020017f4f7264657220506c6163656420576974682053656c6c6572000000000000000081525081526020016002548152602001600960006004866040518082805190602001908083835b602083106117d157805182526020820191506020810190506020830392506117ae565b6001836020036101000a038019825116818451168082178552505050505050905001915050908152602001604051809103902060050160009054906101000a900473ffffffffffffffffffffffffffffffffffffffff1673ffffffffffffffffffffffffffffffffffffffff1673ffffffffffffffffffffffffffffffffffffffff168152602001908152602001600020600060025481526020019081526020016000206002018054600181600116156101000203166002900480601f01602080910402602001604051908101604052809291908181526020018280546001816001161561010002031660029004801561190c5780601f106118e15761010080835404028352916020019161190c565b820191906000526020600020905b8154815290600101906020018083116118ef57829003601f168201915b50505050508152509050600560003373ffffffffffffffffffffffffffffffffffffffff1673ffffffffffffffffffffffffffffffffffffffff1681526020019081526020016000208190806001815401808255809150509060018203906000526020600020906004020160009091929091909150600082015181600001908051906020019061199d929190613f3b565b5060208201518160010190805190602001906119ba929190613f3b565b506040820151816002015560608201518160030190805190602001906119e1929190613f3b565b505050506119ed613fbb565b604051806060016040528084815260200160025481526020013373ffffffffffffffffffffffffffffffffffffffff168152509050600860006004856040518082805190602001908083835b60208310611a5c5780518252602082019150602081019050602083039250611a39565b6001836020036101000a038019825116818451168082178552505050505050905001915050908152602001604051809103902060050160009054906101000a900473ffffffffffffffffffffffffffffffffffffffff1673ffffffffffffffffffffffffffffffffffffffff1673ffffffffffffffffffffffffffffffffffffffff16815260200190815260200160002081908060018154018082558091505090600182039060005260206000209060030201600090919290919091506000820151816000019080519060200190611b35929190613f3b565b506020820151816001015560408201518160020160006101000a81548173ffffffffffffffffffffffffffffffffffffffff021916908373ffffffffffffffffffffffffffffffffffffffff16021790555050505082600960006004866040518082805190602001908083835b60208310611bc55780518252602082019150602081019050602083039250611ba2565b6001836020036101000a038019825116818451168082178552505050505050905001915050908152602001604051809103902060050160009054906101000a900473ffffffffffffffffffffffffffffffffffffffff1673ffffffffffffffffffffffffffffffffffffffff1673ffffffffffffffffffffffffffffffffffffffff168152602001908152602001600020600060025481526020019081526020016000206000019080519060200190611c7f929190613e93565b5033600960006004866040518082805190602001908083835b60208310611cbb5780518252602082019150602081019050602083039250611c98565b6001836020036101000a038019825116818451168082178552505050505050905001915050908152602001604051809103902060050160009054906101000a900473ffffffffffffffffffffffffffffffffffffffff1673ffffffffffffffffffffffffffffffffffffffff1673ffffffffffffffffffffffffffffffffffffffff1681526020019081526020016000206000600254815260200190815260200160002060040160006101000a81548173ffffffffffffffffffffffffffffffffffffffff021916908373ffffffffffffffffffffffffffffffffffffffff160217905550600254600960006004866040518082805190602001908083835b60208310611ddd5780518252602082019150602081019050602083039250611dba565b6001836020036101000a038019825116818451168082178552505050505050905001915050908152602001604051809103902060050160009054906101000a900473ffffffffffffffffffffffffffffffffffffffff1673ffffffffffffffffffffffffffffffffffffffff1673ffffffffffffffffffffffffffffffffffffffff1681526020019081526020016000206000600254815260200190815260200160002060010181905550600660003373ffffffffffffffffffffffffffffffffffffffff1673ffffffffffffffffffffffffffffffffffffffff168152602001908152602001600020600201600960006004866040518082805190602001908083835b60208310611f045780518252602082019150602081019050602083039250611ee1565b6001836020036101000a038019825116818451168082178552505050505050905001915050908152602001604051809103902060050160009054906101000a900473ffffffffffffffffffffffffffffffffffffffff1673ffffffffffffffffffffffffffffffffffffffff1673ffffffffffffffffffffffffffffffffffffffff168152602001908152602001600020600060025481526020019081526020016000206003019080546001816001161561010002031660029004611fca929190613ff2565b506001600960006004866040518082805190602001908083835b602083106120075780518252602082019150602081019050602083039250611fe4565b6001836020036101000a038019825116818451168082178552505050505050905001915050908152602001604051809103902060050160009054906101000a900473ffffffffffffffffffffffffffffffffffffffff1673ffffffffffffffffffffffffffffffffffffffff1673ffffffffffffffffffffffffffffffffffffffff1681526020019081526020016000206000600254815260200190815260200160002060040160146101000a81548160ff021916908315150217905550505050565b600960003373ffffffffffffffffffffffffffffffffffffffff1673ffffffffffffffffffffffffffffffffffffffff168152602001908152602001600020600083815260200190815260200160002060040160149054906101000a900460ff1661213457600080fd5b80600960003373ffffffffffffffffffffffffffffffffffffffff1673ffffffffffffffffffffffffffffffffffffffff1681526020019081526020016000206000848152602001908152602001600020600201908051906020019061219b929190613e93565b505050565b6060600960003373ffffffffffffffffffffffffffffffffffffffff1673ffffffffffffffffffffffffffffffffffffffff16815260200190815260200160002060008381526020019081526020016000206000018054600181600116156101000203166002900480601f0160208091040260200160405190810160405280929190818152602001828054600181600116156101000203166002900480156122895780601f1061225e57610100808354040283529160200191612289565b820191906000526020600020905b81548152906001019060200180831161226c57829003601f168201915b50505050509050919050565b6004856040518082805190602001908083835b602083106122cb57805182526020820191506020810190506020830392506122a8565b6001836020036101000a038019825116818451168082178552505050505050905001915050908152602001604051809103902060050160149054906101000a900460ff161561231957600080fd5b600760003373ffffffffffffffffffffffffffffffffffffffff1673ffffffffffffffffffffffffffffffffffffffff16815260200190815260200160002060030160009054906101000a900460ff1661237257600080fd5b61237a614079565b6040518060e001604052808781526020018681526020018581526020018481526020018381526020013373ffffffffffffffffffffffffffffffffffffffff168152602001600115158152509050856004876040518082805190602001908083835b602083106123ff57805182526020820191506020810190506020830392506123dc565b6001836020036101000a03801982511681845116808217855250505050505090500191505090815260200160405180910390206000019080519060200190612448929190613e93565b50846004876040518082805190602001908083835b60208310612480578051825260208201915060208101905060208303925061245d565b6001836020036101000a038019825116818451168082178552505050505050905001915050908152602001604051809103902060010190805190602001906124c9929190613e93565b50836004876040518082805190602001908083835b6020831061250157805182526020820191506020810190506020830392506124de565b6001836020036101000a0380198251168184511680821785525050505050509050019150509081526020016040518091039020600201908051906020019061254a929190613e93565b50816004876040518082805190602001908083835b60208310612582578051825260208201915060208101905060208303925061255f565b6001836020036101000a038019825116818451168082178552505050505050905001915050908152602001604051809103902060040190805190602001906125cb929190613e93565b50826004876040518082805190602001908083835b6020831061260357805182526020820191506020810190506020830392506125e0565b6001836020036101000a038019825116818451168082178552505050505050905001915050908152602001604051809103902060030181905550336004876040518082805190602001908083835b602083106126745780518252602082019150602081019050602083039250612651565b6001836020036101000a038019825116818451168082178552505050505050905001915050908152602001604051809103902060050160006101000a81548173ffffffffffffffffffffffffffffffffffffffff021916908373ffffffffffffffffffffffffffffffffffffffff16021790555060016004876040518082805190602001908083835b6020831061272057805182526020820191506020810190506020830392506126fd565b6001836020036101000a038019825116818451168082178552505050505050905001915050908152602001604051809103902060050160146101000a81548160ff0219169083151502179055506003819080600181540180825580915050906001820390600052602060002090600602016000909192909190915060008201518160000190805190602001906127b7929190613f3b565b5060208201518160010190805190602001906127d4929190613f3b565b5060408201518160020190805190602001906127f1929190613f3b565b50606082015181600301556080820151816004019080519060200190612818929190613f3b565b5060a08201518160050160006101000a81548173ffffffffffffffffffffffffffffffffffffffff021916908373ffffffffffffffffffffffffffffffffffffffff16021790555060c08201518160050160146101000a81548160ff021916908315150217905550505050505050505050565b6007602052806000526040600020600091509050806000018054600181600116156101000203166002900480601f0160208091040260200160405190810160405280929190818152602001828054600181600116156101000203166002900480156129375780601f1061290c57610100808354040283529160200191612937565b820191906000526020600020905b81548152906001019060200180831161291a57829003601f168201915b5050505050908060010160009054906101000a900473ffffffffffffffffffffffffffffffffffffffff16908060020154908060030160009054906101000a900460ff16905084565b6000809054906101000a900473ffffffffffffffffffffffffffffffffffffffff1681565b6000600560003373ffffffffffffffffffffffffffffffffffffffff1673ffffffffffffffffffffffffffffffffffffffff16815260200190815260200160002080549050905090565b3373ffffffffffffffffffffffffffffffffffffffff16600960006004856040518082805190602001908083835b60208310612a405780518252602082019150602081019050602083039250612a1d565b6001836020036101000a038019825116818451168082178552505050505050905001915050908152602001604051809103902060050160009054906101000a900473ffffffffffffffffffffffffffffffffffffffff1673ffffffffffffffffffffffffffffffffffffffff1673ffffffffffffffffffffffffffffffffffffffff168152602001908152602001600020600083815260200190815260200160002060040160009054906101000a900473ffffffffffffffffffffffffffffffffffffffff1673ffffffffffffffffffffffffffffffffffffffff1614612b2657600080fd5b6040518060600160405280603281526020016140f460329139600960006004856040518082805190602001908083835b60208310612b795780518252602082019150602081019050602083039250612b56565b6001836020036101000a038019825116818451168082178552505050505050905001915050908152602001604051809103902060050160009054906101000a900473ffffffffffffffffffffffffffffffffffffffff1673ffffffffffffffffffffffffffffffffffffffff1673ffffffffffffffffffffffffffffffffffffffff16815260200190815260200160002060008381526020019081526020016000206002019080519060200190612c31929190613e93565b506001600960006004856040518082805190602001908083835b60208310612c6e5780518252602082019150602081019050602083039250612c4b565b6001836020036101000a038019825116818451168082178552505050505050905001915050908152602001604051809103902060050160009054906101000a900473ffffffffffffffffffffffffffffffffffffffff1673ffffffffffffffffffffffffffffffffffffffff1673ffffffffffffffffffffffffffffffffffffffff168152602001908152602001600020600083815260200190815260200160002060040160156101000a81548160ff0219169083151502179055505050565b6060600960003373ffffffffffffffffffffffffffffffffffffffff1673ffffffffffffffffffffffffffffffffffffffff16815260200190815260200160002060008381526020019081526020016000206003018054600181600116156101000203166002900480601f016020809104026020016040519081016040528092919081815260200182805460018160011615610100020316600290048015612e175780601f10612dec57610100808354040283529160200191612e17565b820191906000526020600020905b815481529060010190602001808311612dfa57829003601f168201915b50505050509050919050565b60606000806060600860003373ffffffffffffffffffffffffffffffffffffffff1673ffffffffffffffffffffffffffffffffffffffff1681526020019081526020016000208581548110612e7457fe5b9060005260206000209060030201600001600860003373ffffffffffffffffffffffffffffffffffffffff1673ffffffffffffffffffffffffffffffffffffffff1681526020019081526020016000208681548110612ecf57fe5b906000526020600020906003020160010154600860003373ffffffffffffffffffffffffffffffffffffffff1673ffffffffffffffffffffffffffffffffffffffff1681526020019081526020016000208781548110612f2b57fe5b906000526020600020906003020160020160009054906101000a900473ffffffffffffffffffffffffffffffffffffffff16600960003373ffffffffffffffffffffffffffffffffffffffff1673ffffffffffffffffffffffffffffffffffffffff1681526020019081526020016000206000600860003373ffffffffffffffffffffffffffffffffffffffff1673ffffffffffffffffffffffffffffffffffffffff1681526020019081526020016000208a81548110612fe857fe5b9060005260206000209060030201600101548152602001908152602001600020600201838054600181600116156101000203166002900480601f0160208091040260200160405190810160405280929190818152602001828054600181600116156101000203166002900480156130a05780601f10613075576101008083540402835291602001916130a0565b820191906000526020600020905b81548152906001019060200180831161308357829003601f168201915b50505050509350808054600181600116156101000203166002900480601f01602080910402602001604051908101604052809291908181526020018280546001816001161561010002031660029004801561313c5780601f106131115761010080835404028352916020019161313c565b820191906000526020600020905b81548152906001019060200180831161311f57829003601f168201915b5050505050905093509350935093509193509193565b6000600860003373ffffffffffffffffffffffffffffffffffffffff1673ffffffffffffffffffffffffffffffffffffffff16815260200190815260200160002080549050905090565b6000600960003373ffffffffffffffffffffffffffffffffffffffff1673ffffffffffffffffffffffffffffffffffffffff168152602001908152602001600020600083815260200190815260200160002060040160009054906101000a900473ffffffffffffffffffffffffffffffffffffffff169050919050565b82600660003373ffffffffffffffffffffffffffffffffffffffff1673ffffffffffffffffffffffffffffffffffffffff168152602001908152602001600020600001908051906020019061326f929190613e93565b5081600660003373ffffffffffffffffffffffffffffffffffffffff1673ffffffffffffffffffffffffffffffffffffffff16815260200190815260200160002060010190805190602001906132c6929190613e93565b5080600660003373ffffffffffffffffffffffffffffffffffffffff1673ffffffffffffffffffffffffffffffffffffffff168152602001908152602001600020600201908051906020019061331d929190613e93565b506001600660003373ffffffffffffffffffffffffffffffffffffffff1673ffffffffffffffffffffffffffffffffffffffff16815260200190815260200160002060030160006101000a81548160ff021916908315150217905550505050565b6003818154811061338b57fe5b9060005260206000209060060201600091509050806000018054600181600116156101000203166002900480601f0160208091040260200160405190810160405280929190818152602001828054600181600116156101000203166002900480156134375780601f1061340c57610100808354040283529160200191613437565b820191906000526020600020905b81548152906001019060200180831161341a57829003601f168201915b505050505090806001018054600181600116156101000203166002900480601f0160208091040260200160405190810160405280929190818152602001828054600181600116156101000203166002900480156134d55780601f106134aa576101008083540402835291602001916134d5565b820191906000526020600020905b8154815290600101906020018083116134b857829003601f168201915b505050505090806002018054600181600116156101000203166002900480601f0160208091040260200160405190810160405280929190818152602001828054600181600116156101000203166002900480156135735780601f1061354857610100808354040283529160200191613573565b820191906000526020600020905b81548152906001019060200180831161355657829003601f168201915b505050505090806003015490806004018054600181600116156101000203166002900480601f0160208091040260200160405190810160405280929190818152602001828054600181600116156101000203166002900480156136175780601f106135ec57610100808354040283529160200191613617565b820191906000526020600020905b8154815290600101906020018083116135fa57829003601f168201915b5050505050908060050160009054906101000a900473ffffffffffffffffffffffffffffffffffffffff16908060050160149054906101000a900460ff16905087565b600960003373ffffffffffffffffffffffffffffffffffffffff1673ffffffffffffffffffffffffffffffffffffffff168152602001908152602001600020600082815260200190815260200160002060040160159054906101000a900460ff166136c457600080fd5b6004826040518082805190602001908083835b602083106136fa57805182526020820191506020810190506020830392506136d7565b6001836020036101000a038019825116818451168082178552505050505050905001915050908152602001604051809103902060030154341461373c57600080fd5b600960003373ffffffffffffffffffffffffffffffffffffffff1673ffffffffffffffffffffffffffffffffffffffff168152602001908152602001600020600082815260200190815260200160002060040160009054906101000a900473ffffffffffffffffffffffffffffffffffffffff1673ffffffffffffffffffffffffffffffffffffffff166108fc349081150290604051600060405180830381858888f193505050501580156137f5573d6000803e3d6000fd5b5060405180606001604052806029815260200161412660299139600960006004856040518082805190602001908083835b602083106138495780518252602082019150602081019050602083039250613826565b6001836020036101000a038019825116818451168082178552505050505050905001915050908152602001604051809103902060050160009054906101000a900473ffffffffffffffffffffffffffffffffffffffff1673ffffffffffffffffffffffffffffffffffffffff1673ffffffffffffffffffffffffffffffffffffffff16815260200190815260200160002060008381526020019081526020016000206002019080519060200190613901929190613e93565b505050565b6060600960003373ffffffffffffffffffffffffffffffffffffffff1673ffffffffffffffffffffffffffffffffffffffff16815260200190815260200160002060008381526020019081526020016000206002018054600181600116156101000203166002900480601f0160208091040260200160405190810160405280929190818152602001828054600181600116156101000203166002900480156139ef5780601f106139c4576101008083540402835291602001916139ef565b820191906000526020600020905b8154815290600101906020018083116139d257829003601f168201915b50505050509050919050565b60608060006060600560003373ffffffffffffffffffffffffffffffffffffffff1673ffffffffffffffffffffffffffffffffffffffff1681526020019081526020016000208581548110613a4c57fe5b9060005260206000209060040201600001600560003373ffffffffffffffffffffffffffffffffffffffff1673ffffffffffffffffffffffffffffffffffffffff1681526020019081526020016000208681548110613aa757fe5b9060005260206000209060040201600101600560003373ffffffffffffffffffffffffffffffffffffffff1673ffffffffffffffffffffffffffffffffffffffff1681526020019081526020016000208781548110613b0257fe5b906000526020600020906004020160020154600960006004600560003373ffffffffffffffffffffffffffffffffffffffff1673ffffffffffffffffffffffffffffffffffffffff1681526020019081526020016000208b81548110613b6457fe5b90600052602060002090600402016000016040518082805460018160011615610100020316600290048015613bd05780601f10613bae576101008083540402835291820191613bd0565b820191906000526020600020905b815481529060010190602001808311613bbc575b5050915050908152602001604051809103902060050160009054906101000a900473ffffffffffffffffffffffffffffffffffffffff1673ffffffffffffffffffffffffffffffffffffffff1673ffffffffffffffffffffffffffffffffffffffff1681526020019081526020016000206000600560003373ffffffffffffffffffffffffffffffffffffffff1673ffffffffffffffffffffffffffffffffffffffff1681526020019081526020016000208a81548110613c8d57fe5b9060005260206000209060040201600201548152602001908152602001600020600201838054600181600116156101000203166002900480601f016020809104026020016040519081016040528092919081815260200182805460018160011615610100020316600290048015613d455780601f10613d1a57610100808354040283529160200191613d45565b820191906000526020600020905b815481529060010190602001808311613d2857829003601f168201915b50505050509350828054600181600116156101000203166002900480601f016020809104026020016040519081016040528092919081815260200182805460018160011615610100020316600290048015613de15780601f10613db657610100808354040283529160200191613de1565b820191906000526020600020905b815481529060010190602001808311613dc457829003601f168201915b50505050509250808054600181600116156101000203166002900480601f016020809104026020016040519081016040528092919081815260200182805460018160011615610100020316600290048015613e7d5780601f10613e5257610100808354040283529160200191613e7d565b820191906000526020600020905b815481529060010190602001808311613e6057829003601f168201915b5050505050905093509350935093509193509193565b828054600181600116156101000203166002900490600052602060002090601f016020900481019282601f10613ed457805160ff1916838001178555613f02565b82800160010185558215613f02579182015b82811115613f01578251825591602001919060010190613ee6565b5b509050613f0f91906140ce565b5090565b6040518060800160405280606081526020016060815260200160008152602001606081525090565b828054600181600116156101000203166002900490600052602060002090601f016020900481019282601f10613f7c57805160ff1916838001178555613faa565b82800160010185558215613faa579182015b82811115613fa9578251825591602001919060010190613f8e565b5b509050613fb791906140ce565b5090565b60405180606001604052806060815260200160008152602001600073ffffffffffffffffffffffffffffffffffffffff1681525090565b828054600181600116156101000203166002900490600052602060002090601f016020900481019282601f1061402b5780548555614068565b8280016001018555821561406857600052602060002091601f016020900482015b8281111561406757825482559160010191906001019061404c565b5b50905061407591906140ce565b5090565b6040518060e001604052806060815260200160608152602001606081526020016000815260200160608152602001600073ffffffffffffffffffffffffffffffffffffffff1681526020016000151581525090565b6140f091905b808211156140ec5760008160009055506001016140d4565b5090565b9056fe4f726465722043616e63656c65642042792042757965722c205061796d656e742077696c6c2042652020526566756e6465644f726465722043616e63656c65642042792042757965722c205061796d656e7420526566756e646564a265627a7a72315820716589c6b6bd251d24faf9dc11dc1e89ecfc6c0af2cc393fd939b950db4ed9a264736f6c63430005100032",
  "source": "pragma solidity >=0.4.25 <0.7.0;\n\n//pragma solidity ^0.5.4;\n\ncontract Marketplace{\n    \n   address payable public owner;\n   \n   constructor() public {\n       owner=msg.sender;\n          }\n      uint id;\n      uint purchaseId;\n    \n    struct product{\n        string productId;\n        string productName;\n        string Category;\n        uint price;\n        string description;\n        address payable seller;\n        bool isActive;\n        \n           }\n     struct ordersPlaced {\n               string productId;\n               uint purchaseId;\n               address orderedBy;\n               \n              }\n    struct orders{\n        string productId;\n        string orderStatus;\n        uint purchaseId;\n        string shipmentStatus;\n        \n          }\n    struct user{\n        string name;\n        string email;\n        string deliveryAddress;\n        bool isCreated;\n           }\n    \n    struct sellerShipment {\n        string productId;\n        uint purchaseId;\n        string shipmentStatus;\n        string deliveryAddress;\n        address  payable orderedBy;\n        bool isActive;\n        bool isCanceled;\n        \n        \n            }\n    struct seller{\n                string name;\n                address addr;\n                uint bankGuaraantee;\n                bool bgPaid;\n                }\n    product[] public allProducts;\n    \n    mapping (string => product) products;\n    mapping (address=>orders[]) userOrders;\n    mapping (address=> user) users;\n    mapping(address=> seller) public sellers;\n    mapping (address=> ordersPlaced[]) sellerOrders;\n    mapping (address=> mapping(uint=>sellerShipment))sellerShipments;\n    \n    \n    function addProduct(string memory _productId, string memory _productName, string memory _category, uint _price, string memory _description) public {\n      require(!products[_productId].isActive);\n       require(sellers[msg.sender].bgPaid);\n       \n       product memory product = product(_productId, _productName, _category, _price, _description, msg.sender, true);  \n       products[_productId].productId= _productId;\n       products[_productId].productName= _productName;   \n       products[_productId].Category= _category;   \n       products[_productId].description= _description;   \n       products[_productId].price= _price;   \n       products[_productId].seller= msg.sender; \n       products[_productId].isActive = true;\n       allProducts.push(product);\n          \n                     }\n    \n    function buyProduct(string memory _productId)  public payable {\n        \n        \n        require(msg.value == products[_productId].price);\n        require( users[msg.sender].isCreated);\n        \n        products[_productId].seller.transfer(msg.value);\n        \n        purchaseId = id++;\n         orders memory order = orders(_productId,  \"Order Placed With Seller\",purchaseId, sellerShipments[products[_productId].seller][purchaseId].shipmentStatus);\n        userOrders[msg.sender].push(order);\n        ordersPlaced memory ord = ordersPlaced(_productId, purchaseId, msg.sender);\n        sellerOrders[products[_productId].seller].push(ord);\n        \n        sellerShipments[products[_productId].seller][purchaseId].productId=_productId;\n        sellerShipments[products[_productId].seller][purchaseId].orderedBy= msg.sender;\n        sellerShipments[products[_productId].seller][purchaseId].purchaseId= purchaseId;\n        sellerShipments[products[_productId].seller][purchaseId].deliveryAddress = users[msg.sender].deliveryAddress;\n        sellerShipments[products[_productId].seller][purchaseId].isActive= true;\n        \n        \n                     }\n    function createAccount(string memory _name, string memory _email, string memory _deliveryAddress) public {\n        \n        users[msg.sender].name= _name;\n        users[msg.sender].email= _email;\n        users[msg.sender].deliveryAddress= _deliveryAddress;\n        users[msg.sender].isCreated= true;\n                     }\n    function updateShipment(uint _purchaseId, string memory _shipmentDetails) public {\n        require(sellerShipments[msg.sender][_purchaseId].isActive);\n        \n        sellerShipments[msg.sender][_purchaseId].shipmentStatus= _shipmentDetails;\n        \n                    }\n    \n    function sellerSignUp(string memory _name) public payable{\n    require(!sellers[msg.sender].bgPaid);\n        require(msg.value==5 ether);\n        owner.transfer(msg.value);\n        sellers[msg.sender].name= _name;\n        sellers[msg.sender].addr= msg.sender;\n        sellers[msg.sender].bankGuaraantee = msg.value;\n        sellers[msg.sender].bgPaid=true;\n    }\n    function cancelOrder(string memory _productId, uint _purchaseId) public payable {\n    require(sellerShipments[products[_productId].seller][_purchaseId].orderedBy==msg.sender);\n    \n    sellerShipments[products[_productId].seller][_purchaseId].shipmentStatus= \"Order Canceled By Buyer, Payment will Be  Refunded\";\n    sellerShipments[products[_productId].seller][_purchaseId].isCanceled= true; \n    }\n    function refund(string memory _productId, uint _purchaseId)public payable {\n       require (sellerShipments[msg.sender][_purchaseId].isCanceled); \n        require(msg.value==products[_productId].price);\n        sellerShipments[msg.sender][_purchaseId].orderedBy.transfer(msg.value);\n        sellerShipments[products[_productId].seller][_purchaseId].shipmentStatus= \"Order Canceled By Buyer, Payment Refunded\";\n        \n        \n    }\n    \n    \n    //getters\n     function getOrdersPlacedLength() public view returns(uint) {\n        return sellerOrders[msg.sender].length;\n         }\n    function getProductsLength() public view returns(uint) {\n        return allProducts.length;\n         }\n         \n     function getMyOrdersLength() public view returns(uint) {\n        return userOrders[msg.sender].length;\n         }\n    \n    function myOrders (uint _index) public view returns(string memory, string memory, uint, string memory) {\n        \n        return(userOrders[msg.sender][_index].productId, userOrders[msg.sender][_index].orderStatus, userOrders[msg.sender][_index].purchaseId, sellerShipments[products[userOrders[msg.sender][_index].productId].seller][userOrders[msg.sender][_index].purchaseId].shipmentStatus);\n                  }\n   \n    function getShipmentProductId(uint _purchaseId) public view returns(string memory) {\n        \n        return(sellerShipments[msg.sender][_purchaseId].productId);\n    }\n     function getShipmentStatus(uint _purchaseId) public view returns(string memory) {\n        \n        return(sellerShipments[msg.sender][_purchaseId].shipmentStatus);\n    }\n     function getShipmentOrderedBy(uint _purchaseId) public view returns(address) {\n        \n        return(sellerShipments[msg.sender][_purchaseId].orderedBy);\n    \n    }\n     function getShipmentAddress(uint _purchaseId) public view returns(string memory) {\n        \n        return(sellerShipments[msg.sender][_purchaseId].deliveryAddress);\n    }\n      \n     function getOrdersPlaced(uint _index) public view returns(string memory, uint, address, string memory) {\n        \n        return(sellerOrders[msg.sender][_index].productId, sellerOrders[msg.sender][_index].purchaseId, sellerOrders[msg.sender][_index].orderedBy, sellerShipments[msg.sender][sellerOrders[msg.sender][_index].purchaseId].shipmentStatus);\n    } \n}",
  "sourcePath": "/Users/muskan/marketplace/contracts/Marketplace.sol",
  "compiler": {
    "name": "solc",
    "version": "0.5.16+commit.9c3226ce.Emscripten.clang"
  },
  "schemaVersion": "3.2.0",
  "updatedAt": "2020-05-27T11:42:00.956Z",
  "networkType": "ethereum",
  "devdoc": {
    "methods": {}
  },
  "userdoc": {
    "methods": {}
  }
}